:100000000C9434000C943E000C943E000C943E0082
:100010000C943E000C943E000C943E000C943E0068
:100020000C943E000C943E000C943E000C94910005
:100030000C943E000C943E000C943E000C943E0048
:100040000C943E000C943E000C943E000C943E0038
:100050000C943E000C943E000C943E000C943E0028
:100060000C943E000C943E0011241FBECFEFD8E04C
:10007000DEBFCDBF0E9447000C949D000C94000091
:100080002D9A109285001092840078940895109211
:10009000C50083E38093C40088E18093C10096E0AB
:1000A0009093C200E1E8F0E080818C608083EFE60D
:1000B000F0E08081826080832AE638E13093890015
:1000C00020938800789484B5826084BD85B585606E
:1000D00085BD97BD259A96B5C0ECD0E00F2EF6EC05
:1000E000EF2EF12CF02D88818823ECF7F701808129
:1000F0008435C9F716B5191303C016B51917E9F3F6
:10010000888185FFFDCF81E3810FF70180830E9405
:1001100040008FE19EE40197F1F700C00000912FAD
:10012000E2CF1F920F920FB60F9211242D98F894E0
:0E0130000F900FBE0F901F901895F894FFCF00
:00000001FF
