S01400005465747269732074657374322E7372656383
S11300000C9434000C9446000C9446000C94460066
S11300100C9446000C9494060C9446000C944600F0
S11300200C9446000C9446000C9446000C94460034
S11300300C9446000C9446000C9446000C94460024
S11300400C9446000C9446000C9446000C94460014
S11300500C9446000C9446000C9446000C94460004
S11300600C9446000C94460011241FBECFEFD8E038
S1130070DEBFCDBF21E0A0E0B1E001C01D92AC31F4
S1130080B207E1F70E945F060C94BA060C940000D4
S1130090000020E012C095B19D7F95B9000088232F
S11300A024F495B1916095B903C095B19E7F95B93B
S11300B095B1926095B92F5F880F283060F3089549
S11300C0CF93C62F95B1946095B90E9448008C2FA8
S11300D00E94480085B18B7F85B9000085B184609A
S11300E085B9CF91089584B1876084B960E089E0CF
S11300F00E94600067E08BE00E9460006FE08AE08D
S11301000E94600060E08FE00E94600061E08CE08B
S11301100E9460000895883018F5683008F521E0E1
S113012030E002C0220F331F6A95E2F7442341F006
S1130130E82FF0E0EE5FFE4F9081292B208308C06A
S1130140E82FF0E0EE5FFE4F209590812923208375
S1130150E82FF0E0EE5FFE4F60818F5F0E94600049
S11301600895883040F4E82FF0E0EE5FFE4F60839E
S11301708F5F0E94600008951F93CF93DF938830B0
S1130180B0F4162FD82FC0E010C0212F30E00C2E71
S113019002C0359527950A94E2F741E020FF40E03C
S11301A06D2F8C2F0E948B00CF5FC83070F3DF91CE
S11301B0CF911F910895CF93C0E012C08C2F90E08F
S11301C0FC01EE5FFE4F2081222349F0FC01EE5F2B
S11301D0FE4F108260E081E08C0F0E946000CF5FD0
S11301E0C83060F3CF9108951092C50083E38093E3
S11301F0C40086E08093C20088E18093C100089522
S11302008091C0008823E4F78091C60008959091FE
S1130210C00095FFFCCF8093C60008956CE782E090
S11302200E94B1006CE784E00E94BC002FE382E4EA
S11302309FE0215080409040E1F700C000000E9400
S1130240DB0064E486E00E94BC0064E485E00E9474
S1130250BC0064E584E00E94BC0064E583E00E9485
S1130260BC006CE782E00E94BC002FE382E49FE0C4
S1130270215080409040E1F700C000000E94DB0064
S11302806CE782E00E94B1006CE784E00E94BC004D
S11302902FE382E49FE0215080409040E1F700C0CA
S11302A000000E94DB006CE382E00E94B1006CE37A
S11302B084E00E94B1006CE782E00E94BC0068E622
S11302C086E00E94BC002FE382E49FE0215080403E
S11302D09040E1F700C000000E94DB0068E382E088
S11302E00E94B10068E386E00E94B1006CE784E0FC
S11302F00E94BC002FE382E49FE0215080409040A4
S1130300E1F700C000000E94DB0068E782E00E9481
S1130310B10064E083E00E94B10068E384E00E94DD
S1130320B10060E485E00E94B1006CE386E00E94C5
S1130330B1002FE382E49FE0215080409040E1F738
S113034000C000000E94DB000895CF93DF9383E098
S113035090E0909315018093140181E090E09093D4
S11303601B0180931A0124E030E030930F012093A5
S11303700E01909317018093160125E030E030932D
S113038019012093180190930B0180930A0126E030
S113039030E030930D0120930C019093120180936F
S11303A01101C0E0D0E04CC041E0609114018091A3
S11303B01A010E948B0041E060910E0180911601A8
S11303C00E948B0041E06091180180910A010E9413
S11303D08B0041E060910C01809111010E948B001F
S11303E02FE78AE196E0215080409040E1F700C079
S11303F000000E94DB0080911A0190911B0101967C
S113040090931B0180931A0180911601909117011A
S11304100196909317018093160180910A0190919F
S11304200B01019690930B0180930A0180911101B5
S113043090911201019690931201809311012196DB
S1130440C830D1050CF4B0CFDF91CF910895CF938C
S1130450DF9386E090E0909315018093140181E08E
S113046090E090931B0180931A0125E030E03093D3
S11304700F0120930E01909317018093160124E03D
S113048030E0309319012093180190930B0180936D
S11304900A0130930D0120930C0110921201109265
S11304A01101C0E0D0E04CC041E0609114018091A2
S11304B01A010E948B0041E060910E0180911601A7
S11304C00E948B0041E06091180180910A010E9412
S11304D08B0041E060910C01809111010E948B001E
S11304E02FE78AE196E0215080409040E1F700C078
S11304F000000E94DB0080911A0190911B0101967B
S113050090931B0180931A01809116019091170119
S11305100196909317018093160180910A0190919E
S11305200B01019690930B0180930A0180911101B4
S113053090911201019690931201809311012196DA
S1130540C830D1050CF4B0CFDF91CF910895CF938B
S1130550DF9386E090E0909315018093140110924C
S11305601B0110921A0190930F0180930E0181E0F8
S113057090E0909317018093160125E030E03093CA
S113058019012093180190930B0180930A0124E030
S113059030E030930D0120930C019093120180936D
S11305A01101C0E0D0E04CC041E0609114018091A1
S11305B01A010E948B0041E060910E0180911601A6
S11305C00E948B0041E06091180180910A010E9411
S11305D08B0041E060910C01809111010E948B001D
S11305E02FE78AE196E0215080409040E1F700C077
S11305F000000E94DB0080911A0190911B0101967A
S113060090931B0180931A01809116019091170118
S11306100196909317018093160180910A0190919D
S11306200B01019690930B0180930A0180911101B3
S113063090911201019690931201809311012196D9
S1130640C830D1050CF4B0CFDF91CF910895CF938A
S1130650DF9386E090E0909315018093140110924B
S11306601B0110921A0125E030E030930F01209312
S11306700E011092170110921601909319018093A4
S1130680180181E090E090930B0180930A0130936C
S11306900D0120930C019093120180931101C0E08D
S11306A0D0E04CC041E06091140180911A010E9495
S11306B08B0041E060910E01809116010E948B0035
S11306C041E06091180180910A010E948B0041E091
S11306D060910C01809111010E948B002FE78AE147
S11306E096E0215080409040E1F700C000000E9455
S11306F0DB0080911A0190911B01019690931B01DC
S113070080931A018091160190911701019690939C
S113071017018093160180910A0190910B010196B3
S113072090930B0180930A01809111019091120121
S1130730019690931201809311012196C830D1053E
S11307400CF4B0CFDF91CF910895CF93DF9386E07F
S113075090E0909315018093140110921B01109264
S11307601A0185E090E090930F0180930E0110929E
S1130770170110921601909319018093180181E0DA
S113078090E090930B0180930A0124E030E03093D1
S11307900D0120930C019093120180931101C0E08C
S11307A0D0E04CC041E06091140180911A010E9494
S11307B08B0041E060910E01809116010E948B0034
S11307C041E06091180180910A010E948B0041E090
S11307D060910C01809111010E948B002FE78AE146
S11307E096E0215080409040E1F700C000000E9454
S11307F0DB0080911A0190911B01019690931B01DB
S113080080931A018091160190911701019690939B
S113081017018093160180910A0190910B010196B2
S113082090930B0180930A01809111019091120120
S1130830019690931201809311012196C830D1053D
S11308400CF4B0CFDF91CF910895CF93DF9386E07E
S113085090E0909315018093140181E090E09093CF
S11308601B0180931A0125E030E030930F0120939F
S11308700E01909317018093160130931901209370
S1130880180110920B0110920A0124E030E0309319
S11308900D0120930C019093120180931101C0E08B
S11308A0D0E04CC041E06091140180911A010E9493
S11308B08B0041E060910E01809116010E948B0033
S11308C041E06091180180910A010E948B0041E08F
S11308D060910C01809111010E948B002FE78AE145
S11308E096E0215080409040E1F700C000000E9453
S11308F0DB0080911A0190911B01019690931B01DA
S113090080931A018091160190911701019690939A
S113091017018093160180910A0190910B010196B1
S113092090930B0180930A0180911101909112011F
S1130930019690931201809311012196C830D1053C
S11309400CF4B0CFDF91CF910895CF93DF9384E07F
S113095090E0909315018093140110921B01109262
S11309601A0125E030E030930F0120930E0110921C
S113097017011092160186E090E09093190180937C
S1130980180181E090E090930B0180930A01309369
S11309900D0120930C019093120180931101C0E08A
S11309A0D0E04CC041E06091140180911A010E9492
S11309B08B0041E060910E01809116010E948B0032
S11309C041E06091180180910A010E948B0041E08E
S11309D060910C01809111010E948B002FE78AE144
S11309E096E0215080409040E1F700C000000E9452
S11309F0DB0080911A0190911B01019690931B01D9
S1130A0080931A0180911601909117010196909399
S1130A1017018093160180910A0190910B010196B0
S1130A2090930B0180930A0180911101909112011E
S1130A30019690931201809311012196C830D1053B
S1130A400CF4B0CFDF91CF91089584E50E940701A3
S1130A502FE382E49FE0215080409040E1F700C002
S1130A6000000E94000180931301813329F481E086
S1130A7088B90E94A5010895823329F482E088B9D7
S1130A800E9427020895833329F483E088B90E94E1
S1130A90A7020895843329F484E088B90E942703C7
S1130AA00895853329F485E088B90E94A503089543
S1130AB0863329F486E088B90E9425040895873393
S1130AC021F487E088B90E94A50408956CE382E0CC
S1130AD00E94B10062E083E00E94B10062E384E01E
S1130AE00E94B10062E285E00E94B1006CE386E0FE
S1130AF00E94B1002FE382E49FE0215080409040A7
S1130B00E1F700C000000E94DB0068E082E00E9480
S1130B10B10064E183E00E94B10062E284E00E94DB
S1130B20B1006EE385E00E94B10062E286E00E94BB
S1130B30B1002FE382E49FE0215080409040E1F730
S1130B4000C000000E94DB0062E282E00E94B1006B
S1130B5066E383E00E94B1006AE284E00E94B1008F
S1130B6062E285E00E94B10062E286E00E94B10088
S1130B702FE382E49FE0215080409040E1F700C0E1
S1130B8000000E94DB0064E485E00E94BC0064E491
S1130B9084E00E94BC0064E583E00E94BC0064E53C
S1130BA082E00E94BC006CE781E00E94BC002FE759
S1130BB084E89EE1215080409040E1F700C00000AD
S1130BC00E94DB006CE186E00E94B10062E285E0F5
S1130BD00E94B10062E284E00E94B10062E283E01C
S1130BE00E94B1006CE182E00E94B1002FE382E434
S1130BF09FE0215080409040E1F700C000000E9437
S1130C00DB0062E282E00E94B10062E283E00E94C3
S1130C10B10062E284E00E94B10064E185E00E94D8
S1130C20B10068E086E00E94B1002FE382E49FE017
S1130C30215080409040E1F700C000000E94DB009A
S1130C4064E485E00E94BC0064E484E00E94BC008B
S1130C5064E583E00E94BC0064E582E00E94BC007D
S1130C606CE781E00E94BC002FE382E49FE0215006
S1130C7080409040E1F700C000000E94DB006EE17C
S1130C8082E00E94B10062E283E00E94B1006EE162
S1130C9084E00E94B10062E285E00E94B10062E259
S1130CA086E00E94B1002FE382E49FE0215080405F
S1130CB09040E1F700C000000E94DB00089584B179
S1130CC0806284B98FEF87B9E1ECF0E080818068BD
S1130CD080838AB18B7F8AB98AB1877F8AB98AB1C6
S1130CE08F7E8AB98AB18F7D8AB9E8E6F0E0808187
S1130CF084608083EDE6F0E080818460808380817D
S1130D008860808380818061808380818062808329
S1130D1078940E94F4000E9473000E940E010E94C5
S1130D2066050E942505FDCF1F920F920FB60F9204
S1130D3011248F939F934A9906C081E090E0909389
S1130D400101809300014B9906C082E090E09093EA
S1130D500101809300014C9906C083E090E09093D8
S1130D600101809300019F918F910F900FBE0F900E
S10B0D701F901895F894FFCFC1
S9030000FC
